{
  "_format": "hh3-artifact-1",
  "contractName": "CornShirtTicket",
  "sourceName": "contracts/CornShirtTicket.sol",
  "abi": [
    {
      "inputs": [],
      "stateMutability": "nonpayable",
      "type": "constructor"
    },
    {
      "inputs": [],
      "name": "AccessControlBadConfirmation",
      "type": "error"
    },
    {
      "inputs": [
        {
          "internalType": "address",
          "name": "account",
          "type": "address"
        },
        {
          "internalType": "bytes32",
          "name": "neededRole",
          "type": "bytes32"
        }
      ],
      "name": "AccessControlUnauthorizedAccount",
      "type": "error"
    },
    {
      "inputs": [
        {
          "internalType": "address",
          "name": "sender",
          "type": "address"
        },
        {
          "internalType": "uint256",
          "name": "tokenId",
          "type": "uint256"
        },
        {
          "internalType": "address",
          "name": "owner",
          "type": "address"
        }
      ],
      "name": "ERC721IncorrectOwner",
      "type": "error"
    },
    {
      "inputs": [
        {
          "internalType": "address",
          "name": "operator",
          "type": "address"
        },
        {
          "internalType": "uint256",
          "name": "tokenId",
          "type": "uint256"
        }
      ],
      "name": "ERC721InsufficientApproval",
      "type": "error"
    },
    {
      "inputs": [
        {
          "internalType": "address",
          "name": "approver",
          "type": "address"
        }
      ],
      "name": "ERC721InvalidApprover",
      "type": "error"
    },
    {
      "inputs": [
        {
          "internalType": "address",
          "name": "operator",
          "type": "address"
        }
      ],
      "name": "ERC721InvalidOperator",
      "type": "error"
    },
    {
      "inputs": [
        {
          "internalType": "address",
          "name": "owner",
          "type": "address"
        }
      ],
      "name": "ERC721InvalidOwner",
      "type": "error"
    },
    {
      "inputs": [
        {
          "internalType": "address",
          "name": "receiver",
          "type": "address"
        }
      ],
      "name": "ERC721InvalidReceiver",
      "type": "error"
    },
    {
      "inputs": [
        {
          "internalType": "address",
          "name": "sender",
          "type": "address"
        }
      ],
      "name": "ERC721InvalidSender",
      "type": "error"
    },
    {
      "inputs": [
        {
          "internalType": "uint256",
          "name": "tokenId",
          "type": "uint256"
        }
      ],
      "name": "ERC721NonexistentToken",
      "type": "error"
    },
    {
      "anonymous": false,
      "inputs": [
        {
          "indexed": true,
          "internalType": "address",
          "name": "owner",
          "type": "address"
        },
        {
          "indexed": true,
          "internalType": "address",
          "name": "approved",
          "type": "address"
        },
        {
          "indexed": true,
          "internalType": "uint256",
          "name": "tokenId",
          "type": "uint256"
        }
      ],
      "name": "Approval",
      "type": "event"
    },
    {
      "anonymous": false,
      "inputs": [
        {
          "indexed": true,
          "internalType": "address",
          "name": "owner",
          "type": "address"
        },
        {
          "indexed": true,
          "internalType": "address",
          "name": "operator",
          "type": "address"
        },
        {
          "indexed": false,
          "internalType": "bool",
          "name": "approved",
          "type": "bool"
        }
      ],
      "name": "ApprovalForAll",
      "type": "event"
    },
    {
      "anonymous": false,
      "inputs": [
        {
          "indexed": true,
          "internalType": "bytes32",
          "name": "role",
          "type": "bytes32"
        },
        {
          "indexed": true,
          "internalType": "bytes32",
          "name": "previousAdminRole",
          "type": "bytes32"
        },
        {
          "indexed": true,
          "internalType": "bytes32",
          "name": "newAdminRole",
          "type": "bytes32"
        }
      ],
      "name": "RoleAdminChanged",
      "type": "event"
    },
    {
      "anonymous": false,
      "inputs": [
        {
          "indexed": true,
          "internalType": "bytes32",
          "name": "role",
          "type": "bytes32"
        },
        {
          "indexed": true,
          "internalType": "address",
          "name": "account",
          "type": "address"
        },
        {
          "indexed": true,
          "internalType": "address",
          "name": "sender",
          "type": "address"
        }
      ],
      "name": "RoleGranted",
      "type": "event"
    },
    {
      "anonymous": false,
      "inputs": [
        {
          "indexed": true,
          "internalType": "bytes32",
          "name": "role",
          "type": "bytes32"
        },
        {
          "indexed": true,
          "internalType": "address",
          "name": "account",
          "type": "address"
        },
        {
          "indexed": true,
          "internalType": "address",
          "name": "sender",
          "type": "address"
        }
      ],
      "name": "RoleRevoked",
      "type": "event"
    },
    {
      "anonymous": false,
      "inputs": [
        {
          "indexed": true,
          "internalType": "address",
          "name": "from",
          "type": "address"
        },
        {
          "indexed": true,
          "internalType": "address",
          "name": "to",
          "type": "address"
        },
        {
          "indexed": true,
          "internalType": "uint256",
          "name": "tokenId",
          "type": "uint256"
        }
      ],
      "name": "Transfer",
      "type": "event"
    },
    {
      "inputs": [],
      "name": "BURNER_ROLE",
      "outputs": [
        {
          "internalType": "bytes32",
          "name": "",
          "type": "bytes32"
        }
      ],
      "stateMutability": "view",
      "type": "function"
    },
    {
      "inputs": [],
      "name": "DEFAULT_ADMIN_ROLE",
      "outputs": [
        {
          "internalType": "bytes32",
          "name": "",
          "type": "bytes32"
        }
      ],
      "stateMutability": "view",
      "type": "function"
    },
    {
      "inputs": [],
      "name": "MINTER_ROLE",
      "outputs": [
        {
          "internalType": "bytes32",
          "name": "",
          "type": "bytes32"
        }
      ],
      "stateMutability": "view",
      "type": "function"
    },
    {
      "inputs": [
        {
          "internalType": "address",
          "name": "to",
          "type": "address"
        },
        {
          "internalType": "uint256",
          "name": "tokenId",
          "type": "uint256"
        }
      ],
      "name": "approve",
      "outputs": [],
      "stateMutability": "nonpayable",
      "type": "function"
    },
    {
      "inputs": [
        {
          "internalType": "address",
          "name": "owner",
          "type": "address"
        }
      ],
      "name": "balanceOf",
      "outputs": [
        {
          "internalType": "uint256",
          "name": "",
          "type": "uint256"
        }
      ],
      "stateMutability": "view",
      "type": "function"
    },
    {
      "inputs": [
        {
          "internalType": "uint256",
          "name": "tokenId",
          "type": "uint256"
        }
      ],
      "name": "burnRefundedTicket",
      "outputs": [],
      "stateMutability": "nonpayable",
      "type": "function"
    },
    {
      "inputs": [
        {
          "internalType": "uint256",
          "name": "tokenId",
          "type": "uint256"
        }
      ],
      "name": "getApproved",
      "outputs": [
        {
          "internalType": "address",
          "name": "",
          "type": "address"
        }
      ],
      "stateMutability": "view",
      "type": "function"
    },
    {
      "inputs": [
        {
          "internalType": "bytes32",
          "name": "role",
          "type": "bytes32"
        }
      ],
      "name": "getRoleAdmin",
      "outputs": [
        {
          "internalType": "bytes32",
          "name": "",
          "type": "bytes32"
        }
      ],
      "stateMutability": "view",
      "type": "function"
    },
    {
      "inputs": [
        {
          "internalType": "bytes32",
          "name": "role",
          "type": "bytes32"
        },
        {
          "internalType": "address",
          "name": "account",
          "type": "address"
        }
      ],
      "name": "grantRole",
      "outputs": [],
      "stateMutability": "nonpayable",
      "type": "function"
    },
    {
      "inputs": [
        {
          "internalType": "bytes32",
          "name": "role",
          "type": "bytes32"
        },
        {
          "internalType": "address",
          "name": "account",
          "type": "address"
        }
      ],
      "name": "hasRole",
      "outputs": [
        {
          "internalType": "bool",
          "name": "",
          "type": "bool"
        }
      ],
      "stateMutability": "view",
      "type": "function"
    },
    {
      "inputs": [
        {
          "internalType": "address",
          "name": "owner",
          "type": "address"
        },
        {
          "internalType": "address",
          "name": "operator",
          "type": "address"
        }
      ],
      "name": "isApprovedForAll",
      "outputs": [
        {
          "internalType": "bool",
          "name": "",
          "type": "bool"
        }
      ],
      "stateMutability": "view",
      "type": "function"
    },
    {
      "inputs": [
        {
          "internalType": "address",
          "name": "to",
          "type": "address"
        }
      ],
      "name": "mintTicket",
      "outputs": [
        {
          "internalType": "uint256",
          "name": "",
          "type": "uint256"
        }
      ],
      "stateMutability": "nonpayable",
      "type": "function"
    },
    {
      "inputs": [],
      "name": "name",
      "outputs": [
        {
          "internalType": "string",
          "name": "",
          "type": "string"
        }
      ],
      "stateMutability": "view",
      "type": "function"
    },
    {
      "inputs": [
        {
          "internalType": "uint256",
          "name": "tokenId",
          "type": "uint256"
        }
      ],
      "name": "ownerOf",
      "outputs": [
        {
          "internalType": "address",
          "name": "",
          "type": "address"
        }
      ],
      "stateMutability": "view",
      "type": "function"
    },
    {
      "inputs": [
        {
          "internalType": "bytes32",
          "name": "role",
          "type": "bytes32"
        },
        {
          "internalType": "address",
          "name": "callerConfirmation",
          "type": "address"
        }
      ],
      "name": "renounceRole",
      "outputs": [],
      "stateMutability": "nonpayable",
      "type": "function"
    },
    {
      "inputs": [
        {
          "internalType": "bytes32",
          "name": "role",
          "type": "bytes32"
        },
        {
          "internalType": "address",
          "name": "account",
          "type": "address"
        }
      ],
      "name": "revokeRole",
      "outputs": [],
      "stateMutability": "nonpayable",
      "type": "function"
    },
    {
      "inputs": [
        {
          "internalType": "address",
          "name": "from",
          "type": "address"
        },
        {
          "internalType": "address",
          "name": "to",
          "type": "address"
        },
        {
          "internalType": "uint256",
          "name": "tokenId",
          "type": "uint256"
        }
      ],
      "name": "safeTransferFrom",
      "outputs": [],
      "stateMutability": "nonpayable",
      "type": "function"
    },
    {
      "inputs": [
        {
          "internalType": "address",
          "name": "from",
          "type": "address"
        },
        {
          "internalType": "address",
          "name": "to",
          "type": "address"
        },
        {
          "internalType": "uint256",
          "name": "tokenId",
          "type": "uint256"
        },
        {
          "internalType": "bytes",
          "name": "data",
          "type": "bytes"
        }
      ],
      "name": "safeTransferFrom",
      "outputs": [],
      "stateMutability": "nonpayable",
      "type": "function"
    },
    {
      "inputs": [
        {
          "internalType": "address",
          "name": "operator",
          "type": "address"
        },
        {
          "internalType": "bool",
          "name": "approved",
          "type": "bool"
        }
      ],
      "name": "setApprovalForAll",
      "outputs": [],
      "stateMutability": "nonpayable",
      "type": "function"
    },
    {
      "inputs": [
        {
          "internalType": "bytes4",
          "name": "interfaceId",
          "type": "bytes4"
        }
      ],
      "name": "supportsInterface",
      "outputs": [
        {
          "internalType": "bool",
          "name": "",
          "type": "bool"
        }
      ],
      "stateMutability": "view",
      "type": "function"
    },
    {
      "inputs": [],
      "name": "symbol",
      "outputs": [
        {
          "internalType": "string",
          "name": "",
          "type": "string"
        }
      ],
      "stateMutability": "view",
      "type": "function"
    },
    {
      "inputs": [
        {
          "internalType": "uint256",
          "name": "tokenId",
          "type": "uint256"
        }
      ],
      "name": "tokenURI",
      "outputs": [
        {
          "internalType": "string",
          "name": "",
          "type": "string"
        }
      ],
      "stateMutability": "view",
      "type": "function"
    },
    {
      "inputs": [
        {
          "internalType": "address",
          "name": "from",
          "type": "address"
        },
        {
          "internalType": "address",
          "name": "to",
          "type": "address"
        },
        {
          "internalType": "uint256",
          "name": "tokenId",
          "type": "uint256"
        }
      ],
      "name": "transferFrom",
      "outputs": [],
      "stateMutability": "nonpayable",
      "type": "function"
    }
  ],
  "bytecode": "0x608060405234801561000f575f5ffd5b506040518060400160405280600f81526020017f436f726e53686972745469636b657400000000000000000000000000000000008152506040518060400160405280600381526020017f4353540000000000000000000000000000000000000000000000000000000000815250815f908161008a91906104b5565b50806001908161009a91906104b5565b5050506100af5f5f1b3361011760201b60201c565b506100e07f9f2df0fed2c77648de5860a4cc508cd0818c85b8b8a1ab4ceeef8d981c8956a63361011760201b60201c565b506101117f3c11d16cbaffd01df69ce1c404f6340ee057498f5f00246190ea54220576a8483361011760201b60201c565b50610584565b5f610128838361020d60201b60201c565b61020357600160065f8581526020019081526020015f205f015f8473ffffffffffffffffffffffffffffffffffffffff1673ffffffffffffffffffffffffffffffffffffffff1681526020019081526020015f205f6101000a81548160ff0219169083151502179055506101a061027160201b60201c565b73ffffffffffffffffffffffffffffffffffffffff168273ffffffffffffffffffffffffffffffffffffffff16847f2f8788117e7eff1d82e926ec794901d17c78024a50270940304540a733656f0d60405160405180910390a460019050610207565b5f90505b92915050565b5f60065f8481526020019081526020015f205f015f8373ffffffffffffffffffffffffffffffffffffffff1673ffffffffffffffffffffffffffffffffffffffff1681526020019081526020015f205f9054906101000a900460ff16905092915050565b5f33905090565b5f81519050919050565b7f4e487b71000000000000000000000000000000000000000000000000000000005f52604160045260245ffd5b7f4e487b71000000000000000000000000000000000000000000000000000000005f52602260045260245ffd5b5f60028204905060018216806102f357607f821691505b602082108103610306576103056102af565b5b50919050565b5f819050815f5260205f209050919050565b5f6020601f8301049050919050565b5f82821b905092915050565b5f600883026103687fffffffffffffffffffffffffffffffffffffffffffffffffffffffffffffffff8261032d565b610372868361032d565b95508019841693508086168417925050509392505050565b5f819050919050565b5f819050919050565b5f6103b66103b16103ac8461038a565b610393565b61038a565b9050919050565b5f819050919050565b6103cf8361039c565b6103e36103db826103bd565b848454610339565b825550505050565b5f5f905090565b6103fa6103eb565b6104058184846103c6565b505050565b5b818110156104285761041d5f826103f2565b60018101905061040b565b5050565b601f82111561046d5761043e8161030c565b6104478461031e565b81016020851015610456578190505b61046a6104628561031e565b83018261040a565b50505b505050565b5f82821c905092915050565b5f61048d5f1984600802610472565b1980831691505092915050565b5f6104a5838361047e565b9150826002028217905092915050565b6104be82610278565b67ffffffffffffffff8111156104d7576104d6610282565b5b6104e182546102dc565b6104ec82828561042c565b5f60209050601f83116001811461051d575f841561050b578287015190505b610515858261049a565b86555061057c565b601f19841661052b8661030c565b5f5b828110156105525784890151825560018201915060208501945060208101905061052d565b8683101561056f578489015161056b601f89168261047e565b8355505b6001600288020188555050505b505050505050565b612606806105915f395ff3fe608060405234801561000f575f5ffd5b506004361061014b575f3560e01c806342842e0e116100c1578063a22cb4651161007a578063a22cb465146103bf578063b88d4fde146103db578063c87b56dd146103f7578063d539139314610427578063d547741f14610445578063e985e9c5146104615761014b565b806342842e0e146102d75780636352211e146102f357806370a082311461032357806391d148541461035357806395d89b4114610383578063a217fddf146103a15761014b565b806314c861a51161011357806314c861a51461021957806323b872dd14610235578063248a9ca314610251578063282c51f3146102815780632f2ff15d1461029f57806336568abe146102bb5761014b565b806301ffc9a71461014f57806306fdde031461017f578063081812fc1461019d57806308e9bd26146101cd578063095ea7b3146101fd575b5f5ffd5b61016960048036038101906101649190611d52565b610491565b6040516101769190611d97565b60405180910390f35b6101876104a2565b6040516101949190611e20565b60405180910390f35b6101b760048036038101906101b29190611e73565b610531565b6040516101c49190611edd565b60405180910390f35b6101e760048036038101906101e29190611f20565b61054c565b6040516101f49190611f5a565b60405180910390f35b61021760048036038101906102129190611f73565b6105a8565b005b610233600480360381019061022e9190611e73565b6105be565b005b61024f600480360381019061024a9190611fb1565b6105f5565b005b61026b60048036038101906102669190612034565b6106f4565b604051610278919061206e565b60405180910390f35b610289610711565b604051610296919061206e565b60405180910390f35b6102b960048036038101906102b49190612087565b610735565b005b6102d560048036038101906102d09190612087565b610757565b005b6102f160048036038101906102ec9190611fb1565b6107d2565b005b61030d60048036038101906103089190611e73565b6107f1565b60405161031a9190611edd565b60405180910390f35b61033d60048036038101906103389190611f20565b610802565b60405161034a9190611f5a565b60405180910390f35b61036d60048036038101906103689190612087565b6108b8565b60405161037a9190611d97565b60405180910390f35b61038b61091c565b6040516103989190611e20565b60405180910390f35b6103a96109ac565b6040516103b6919061206e565b60405180910390f35b6103d960048036038101906103d491906120ef565b6109b2565b005b6103f560048036038101906103f09190612259565b6109c8565b005b610411600480360381019061040c9190611e73565b6109ed565b60405161041e9190611e20565b60405180910390f35b61042f610a53565b60405161043c919061206e565b60405180910390f35b61045f600480360381019061045a9190612087565b610a77565b005b61047b600480360381019061047691906122d9565b610a99565b6040516104889190611d97565b60405180910390f35b5f61049b82610b27565b9050919050565b60605f80546104b090612344565b80601f01602080910402602001604051908101604052809291908181526020018280546104dc90612344565b80156105275780601f106104fe57610100808354040283529160200191610527565b820191905f5260205f20905b81548152906001019060200180831161050a57829003601f168201915b5050505050905090565b5f61053b82610ba0565b5061054582610c26565b9050919050565b5f7f9f2df0fed2c77648de5860a4cc508cd0818c85b8b8a1ab4ceeef8d981c8956a661057781610c5f565b5f600754905060075f81548092919061058f906123a1565b919050555061059e8482610c73565b8092505050919050565b6105ba82826105b5610c90565b610c97565b5050565b7f3c11d16cbaffd01df69ce1c404f6340ee057498f5f00246190ea54220576a8486105e881610c5f565b6105f182610ca9565b5050565b5f73ffffffffffffffffffffffffffffffffffffffff168273ffffffffffffffffffffffffffffffffffffffff1603610665575f6040517f64a0ae9200000000000000000000000000000000000000000000000000000000815260040161065c9190611edd565b60405180910390fd5b5f6106788383610673610c90565b610d2b565b90508373ffffffffffffffffffffffffffffffffffffffff168173ffffffffffffffffffffffffffffffffffffffff16146106ee578382826040517f64283d7b0000000000000000000000000000000000000000000000000000000081526004016106e5939291906123e8565b60405180910390fd5b50505050565b5f60065f8381526020019081526020015f20600101549050919050565b7f3c11d16cbaffd01df69ce1c404f6340ee057498f5f00246190ea54220576a84881565b61073e826106f4565b61074781610c5f565b6107518383610f36565b50505050565b61075f610c90565b73ffffffffffffffffffffffffffffffffffffffff168173ffffffffffffffffffffffffffffffffffffffff16146107c3576040517f6697b23200000000000000000000000000000000000000000000000000000000815260040160405180910390fd5b6107cd8282611020565b505050565b6107ec83838360405180602001604052805f8152506109c8565b505050565b5f6107fb82610ba0565b9050919050565b5f5f73ffffffffffffffffffffffffffffffffffffffff168273ffffffffffffffffffffffffffffffffffffffff1603610873575f6040517f89c62b6400000000000000000000000000000000000000000000000000000000815260040161086a9190611edd565b60405180910390fd5b60035f8373ffffffffffffffffffffffffffffffffffffffff1673ffffffffffffffffffffffffffffffffffffffff1681526020019081526020015f20549050919050565b5f60065f8481526020019081526020015f205f015f8373ffffffffffffffffffffffffffffffffffffffff1673ffffffffffffffffffffffffffffffffffffffff1681526020019081526020015f205f9054906101000a900460ff16905092915050565b60606001805461092b90612344565b80601f016020809104026020016040519081016040528092919081815260200182805461095790612344565b80156109a25780601f10610979576101008083540402835291602001916109a2565b820191905f5260205f20905b81548152906001019060200180831161098557829003601f168201915b5050505050905090565b5f5f1b81565b6109c46109bd610c90565b838361110a565b5050565b6109d38484846105f5565b6109e76109de610c90565b858585856112e3565b50505050565b60606109f882610ba0565b505f610a0261148f565b90505f815111610a205760405180602001604052805f815250610a4b565b80610a2a846114a5565b604051602001610a3b929190612457565b6040516020818303038152906040525b915050919050565b7f9f2df0fed2c77648de5860a4cc508cd0818c85b8b8a1ab4ceeef8d981c8956a681565b610a80826106f4565b610a8981610c5f565b610a938383611020565b50505050565b5f60055f8473ffffffffffffffffffffffffffffffffffffffff1673ffffffffffffffffffffffffffffffffffffffff1681526020019081526020015f205f8373ffffffffffffffffffffffffffffffffffffffff1673ffffffffffffffffffffffffffffffffffffffff1681526020019081526020015f205f9054906101000a900460ff16905092915050565b5f7f7965db0b000000000000000000000000000000000000000000000000000000007bffffffffffffffffffffffffffffffffffffffffffffffffffffffff1916827bffffffffffffffffffffffffffffffffffffffffffffffffffffffff19161480610b995750610b988261156f565b5b9050919050565b5f5f610bab83611650565b90505f73ffffffffffffffffffffffffffffffffffffffff168173ffffffffffffffffffffffffffffffffffffffff1603610c1d57826040517f7e273289000000000000000000000000000000000000000000000000000000008152600401610c149190611f5a565b60405180910390fd5b80915050919050565b5f60045f8381526020019081526020015f205f9054906101000a900473ffffffffffffffffffffffffffffffffffffffff169050919050565b610c7081610c6b610c90565b611689565b50565b610c8c828260405180602001604052805f8152506116da565b5050565b5f33905090565b610ca483838360016116fd565b505050565b5f610cb55f835f610d2b565b90505f73ffffffffffffffffffffffffffffffffffffffff168173ffffffffffffffffffffffffffffffffffffffff1603610d2757816040517f7e273289000000000000000000000000000000000000000000000000000000008152600401610d1e9190611f5a565b60405180910390fd5b5050565b5f5f610d3684611650565b90505f73ffffffffffffffffffffffffffffffffffffffff168373ffffffffffffffffffffffffffffffffffffffff1614610d7757610d768184866118bc565b5b5f73ffffffffffffffffffffffffffffffffffffffff168173ffffffffffffffffffffffffffffffffffffffff1614610e0257610db65f855f5f6116fd565b600160035f8373ffffffffffffffffffffffffffffffffffffffff1673ffffffffffffffffffffffffffffffffffffffff1681526020019081526020015f205f82825403925050819055505b5f73ffffffffffffffffffffffffffffffffffffffff168573ffffffffffffffffffffffffffffffffffffffff1614610e8157600160035f8773ffffffffffffffffffffffffffffffffffffffff1673ffffffffffffffffffffffffffffffffffffffff1681526020019081526020015f205f82825401925050819055505b8460025f8681526020019081526020015f205f6101000a81548173ffffffffffffffffffffffffffffffffffffffff021916908373ffffffffffffffffffffffffffffffffffffffff160217905550838573ffffffffffffffffffffffffffffffffffffffff168273ffffffffffffffffffffffffffffffffffffffff167fddf252ad1be2c89b69c2b068fc378daa952ba7f163c4a11628f55a4df523b3ef60405160405180910390a4809150509392505050565b5f610f4183836108b8565b61101657600160065f8581526020019081526020015f205f015f8473ffffffffffffffffffffffffffffffffffffffff1673ffffffffffffffffffffffffffffffffffffffff1681526020019081526020015f205f6101000a81548160ff021916908315150217905550610fb3610c90565b73ffffffffffffffffffffffffffffffffffffffff168273ffffffffffffffffffffffffffffffffffffffff16847f2f8788117e7eff1d82e926ec794901d17c78024a50270940304540a733656f0d60405160405180910390a46001905061101a565b5f90505b92915050565b5f61102b83836108b8565b15611100575f60065f8581526020019081526020015f205f015f8473ffffffffffffffffffffffffffffffffffffffff1673ffffffffffffffffffffffffffffffffffffffff1681526020019081526020015f205f6101000a81548160ff02191690831515021790555061109d610c90565b73ffffffffffffffffffffffffffffffffffffffff168273ffffffffffffffffffffffffffffffffffffffff16847ff6391f5c32d9c69d2a47ea670b442974b53935d1edc7fd64eb21e047a839171b60405160405180910390a460019050611104565b5f90505b92915050565b5f73ffffffffffffffffffffffffffffffffffffffff168373ffffffffffffffffffffffffffffffffffffffff160361117a575f6040517fa9fbf51f0000000000000000000000000000000000000000000000000000000081526004016111719190611edd565b60405180910390fd5b5f73ffffffffffffffffffffffffffffffffffffffff168273ffffffffffffffffffffffffffffffffffffffff16036111ea57816040517f5b08ba180000000000000000000000000000000000000000000000000000000081526004016111e19190611edd565b60405180910390fd5b8060055f8573ffffffffffffffffffffffffffffffffffffffff1673ffffffffffffffffffffffffffffffffffffffff1681526020019081526020015f205f8473ffffffffffffffffffffffffffffffffffffffff1673ffffffffffffffffffffffffffffffffffffffff1681526020019081526020015f205f6101000a81548160ff0219169083151502179055508173ffffffffffffffffffffffffffffffffffffffff168373ffffffffffffffffffffffffffffffffffffffff167f17307eab39ab6107e8899845ad3d59bd9653f200f220920489ca2b5937696c31836040516112d69190611d97565b60405180910390a3505050565b5f8373ffffffffffffffffffffffffffffffffffffffff163b1115611488578273ffffffffffffffffffffffffffffffffffffffff1663150b7a02868685856040518563ffffffff1660e01b815260040161134194939291906124cc565b6020604051808303815f875af192505050801561137c57506040513d601f19601f82011682018060405250810190611379919061252a565b60015b6113fd573d805f81146113aa576040519150601f19603f3d011682016040523d82523d5f602084013e6113af565b606091505b505f8151036113f557836040517f64a0ae920000000000000000000000000000000000000000000000000000000081526004016113ec9190611edd565b60405180910390fd5b805160208201fd5b63150b7a0260e01b7bffffffffffffffffffffffffffffffffffffffffffffffffffffffff1916817bffffffffffffffffffffffffffffffffffffffffffffffffffffffff19161461148657836040517f64a0ae9200000000000000000000000000000000000000000000000000000000815260040161147d9190611edd565b60405180910390fd5b505b5050505050565b606060405180602001604052805f815250905090565b60605f60016114b38461197f565b0190505f8167ffffffffffffffff8111156114d1576114d0612135565b5b6040519080825280601f01601f1916602001820160405280156115035781602001600182028036833780820191505090505b5090505f82602083010190505b600115611564578080600190039150507f3031323334353637383961626364656600000000000000000000000000000000600a86061a8153600a858161155957611558612555565b5b0494505f8503611510575b819350505050919050565b5f7f80ac58cd000000000000000000000000000000000000000000000000000000007bffffffffffffffffffffffffffffffffffffffffffffffffffffffff1916827bffffffffffffffffffffffffffffffffffffffffffffffffffffffff1916148061163957507f5b5e139f000000000000000000000000000000000000000000000000000000007bffffffffffffffffffffffffffffffffffffffffffffffffffffffff1916827bffffffffffffffffffffffffffffffffffffffffffffffffffffffff1916145b80611649575061164882611ad0565b5b9050919050565b5f60025f8381526020019081526020015f205f9054906101000a900473ffffffffffffffffffffffffffffffffffffffff169050919050565b61169382826108b8565b6116d65780826040517fe2517d3f0000000000000000000000000000000000000000000000000000000081526004016116cd929190612582565b60405180910390fd5b5050565b6116e48383611b39565b6116f86116ef610c90565b5f8585856112e3565b505050565b808061173557505f73ffffffffffffffffffffffffffffffffffffffff168273ffffffffffffffffffffffffffffffffffffffff1614155b15611867575f61174484610ba0565b90505f73ffffffffffffffffffffffffffffffffffffffff168373ffffffffffffffffffffffffffffffffffffffff16141580156117ae57508273ffffffffffffffffffffffffffffffffffffffff168173ffffffffffffffffffffffffffffffffffffffff1614155b80156117c157506117bf8184610a99565b155b1561180357826040517fa9fbf51f0000000000000000000000000000000000000000000000000000000081526004016117fa9190611edd565b60405180910390fd5b811561186557838573ffffffffffffffffffffffffffffffffffffffff168273ffffffffffffffffffffffffffffffffffffffff167f8c5be1e5ebec7d5bd14f71427d1e84f3dd0314c0f7b2291e5b200ac8c7c3b92560405160405180910390a45b505b8360045f8581526020019081526020015f205f6101000a81548173ffffffffffffffffffffffffffffffffffffffff021916908373ffffffffffffffffffffffffffffffffffffffff16021790555050505050565b6118c7838383611c2c565b61197a575f73ffffffffffffffffffffffffffffffffffffffff168373ffffffffffffffffffffffffffffffffffffffff160361193b57806040517f7e2732890000000000000000000000000000000000000000000000000000000081526004016119329190611f5a565b60405180910390fd5b81816040517f177e802f0000000000000000000000000000000000000000000000000000000081526004016119719291906125a9565b60405180910390fd5b505050565b5f5f5f90507a184f03e93ff9f4daa797ed6e38ed64bf6a1f01000000000000000083106119db577a184f03e93ff9f4daa797ed6e38ed64bf6a1f01000000000000000083816119d1576119d0612555565b5b0492506040810190505b6d04ee2d6d415b85acef81000000008310611a18576d04ee2d6d415b85acef81000000008381611a0e57611a0d612555565b5b0492506020810190505b662386f26fc100008310611a4757662386f26fc100008381611a3d57611a3c612555565b5b0492506010810190505b6305f5e1008310611a70576305f5e1008381611a6657611a65612555565b5b0492506008810190505b6127108310611a95576127108381611a8b57611a8a612555565b5b0492506004810190505b60648310611ab85760648381611aae57611aad612555565b5b0492506002810190505b600a8310611ac7576001810190505b80915050919050565b5f7f01ffc9a7000000000000000000000000000000000000000000000000000000007bffffffffffffffffffffffffffffffffffffffffffffffffffffffff1916827bffffffffffffffffffffffffffffffffffffffffffffffffffffffff1916149050919050565b5f73ffffffffffffffffffffffffffffffffffffffff168273ffffffffffffffffffffffffffffffffffffffff1603611ba9575f6040517f64a0ae92000000000000000000000000000000000000000000000000000000008152600401611ba09190611edd565b60405180910390fd5b5f611bb583835f610d2b565b90505f73ffffffffffffffffffffffffffffffffffffffff168173ffffffffffffffffffffffffffffffffffffffff1614611c27575f6040517f73c6ac6e000000000000000000000000000000000000000000000000000000008152600401611c1e9190611edd565b60405180910390fd5b505050565b5f5f73ffffffffffffffffffffffffffffffffffffffff168373ffffffffffffffffffffffffffffffffffffffff1614158015611ce357508273ffffffffffffffffffffffffffffffffffffffff168473ffffffffffffffffffffffffffffffffffffffff161480611ca45750611ca38484610a99565b5b80611ce257508273ffffffffffffffffffffffffffffffffffffffff16611cca83610c26565b73ffffffffffffffffffffffffffffffffffffffff16145b5b90509392505050565b5f604051905090565b5f5ffd5b5f5ffd5b5f7fffffffff0000000000000000000000000000000000000000000000000000000082169050919050565b611d3181611cfd565b8114611d3b575f5ffd5b50565b5f81359050611d4c81611d28565b92915050565b5f60208284031215611d6757611d66611cf5565b5b5f611d7484828501611d3e565b91505092915050565b5f8115159050919050565b611d9181611d7d565b82525050565b5f602082019050611daa5f830184611d88565b92915050565b5f81519050919050565b5f82825260208201905092915050565b8281835e5f83830152505050565b5f601f19601f8301169050919050565b5f611df282611db0565b611dfc8185611dba565b9350611e0c818560208601611dca565b611e1581611dd8565b840191505092915050565b5f6020820190508181035f830152611e388184611de8565b905092915050565b5f819050919050565b611e5281611e40565b8114611e5c575f5ffd5b50565b5f81359050611e6d81611e49565b92915050565b5f60208284031215611e8857611e87611cf5565b5b5f611e9584828501611e5f565b91505092915050565b5f73ffffffffffffffffffffffffffffffffffffffff82169050919050565b5f611ec782611e9e565b9050919050565b611ed781611ebd565b82525050565b5f602082019050611ef05f830184611ece565b92915050565b611eff81611ebd565b8114611f09575f5ffd5b50565b5f81359050611f1a81611ef6565b92915050565b5f60208284031215611f3557611f34611cf5565b5b5f611f4284828501611f0c565b91505092915050565b611f5481611e40565b82525050565b5f602082019050611f6d5f830184611f4b565b92915050565b5f5f60408385031215611f8957611f88611cf5565b5b5f611f9685828601611f0c565b9250506020611fa785828601611e5f565b9150509250929050565b5f5f5f60608486031215611fc857611fc7611cf5565b5b5f611fd586828701611f0c565b9350506020611fe686828701611f0c565b9250506040611ff786828701611e5f565b9150509250925092565b5f819050919050565b61201381612001565b811461201d575f5ffd5b50565b5f8135905061202e8161200a565b92915050565b5f6020828403121561204957612048611cf5565b5b5f61205684828501612020565b91505092915050565b61206881612001565b82525050565b5f6020820190506120815f83018461205f565b92915050565b5f5f6040838503121561209d5761209c611cf5565b5b5f6120aa85828601612020565b92505060206120bb85828601611f0c565b9150509250929050565b6120ce81611d7d565b81146120d8575f5ffd5b50565b5f813590506120e9816120c5565b92915050565b5f5f6040838503121561210557612104611cf5565b5b5f61211285828601611f0c565b9250506020612123858286016120db565b9150509250929050565b5f5ffd5b5f5ffd5b7f4e487b71000000000000000000000000000000000000000000000000000000005f52604160045260245ffd5b61216b82611dd8565b810181811067ffffffffffffffff8211171561218a57612189612135565b5b80604052505050565b5f61219c611cec565b90506121a88282612162565b919050565b5f67ffffffffffffffff8211156121c7576121c6612135565b5b6121d082611dd8565b9050602081019050919050565b828183375f83830152505050565b5f6121fd6121f8846121ad565b612193565b90508281526020810184848401111561221957612218612131565b5b6122248482856121dd565b509392505050565b5f82601f8301126122405761223f61212d565b5b81356122508482602086016121eb565b91505092915050565b5f5f5f5f6080858703121561227157612270611cf5565b5b5f61227e87828801611f0c565b945050602061228f87828801611f0c565b93505060406122a087828801611e5f565b925050606085013567ffffffffffffffff8111156122c1576122c0611cf9565b5b6122cd8782880161222c565b91505092959194509250565b5f5f604083850312156122ef576122ee611cf5565b5b5f6122fc85828601611f0c565b925050602061230d85828601611f0c565b9150509250929050565b7f4e487b71000000000000000000000000000000000000000000000000000000005f52602260045260245ffd5b5f600282049050600182168061235b57607f821691505b60208210810361236e5761236d612317565b5b50919050565b7f4e487b71000000000000000000000000000000000000000000000000000000005f52601160045260245ffd5b5f6123ab82611e40565b91507fffffffffffffffffffffffffffffffffffffffffffffffffffffffffffffffff82036123dd576123dc612374565b5b600182019050919050565b5f6060820190506123fb5f830186611ece565b6124086020830185611f4b565b6124156040830184611ece565b949350505050565b5f81905092915050565b5f61243182611db0565b61243b818561241d565b935061244b818560208601611dca565b80840191505092915050565b5f6124628285612427565b915061246e8284612427565b91508190509392505050565b5f81519050919050565b5f82825260208201905092915050565b5f61249e8261247a565b6124a88185612484565b93506124b8818560208601611dca565b6124c181611dd8565b840191505092915050565b5f6080820190506124df5f830187611ece565b6124ec6020830186611ece565b6124f96040830185611f4b565b818103606083015261250b8184612494565b905095945050505050565b5f8151905061252481611d28565b92915050565b5f6020828403121561253f5761253e611cf5565b5b5f61254c84828501612516565b91505092915050565b7f4e487b71000000000000000000000000000000000000000000000000000000005f52601260045260245ffd5b5f6040820190506125955f830185611ece565b6125a2602083018461205f565b9392505050565b5f6040820190506125bc5f830185611ece565b6125c96020830184611f4b565b939250505056fea2646970667358221220979ce09e6a28f092acf31574ff0ae3e9fcefc7e7fc664a2541da9b95e31d5c5a64736f6c634300081b0033",
  "linkReferences": {},
  "deployedLinkReferences": {},
  "immutableReferences": {},
  "inputSourceName": "project/contracts/CornShirtTicket.sol",
  "buildInfoId": "solc-0_8_27-d8ed1190f5a5409693e4b6de2d685aca73693346"
}